{
  "contractName": "DVoting",
  "abi": [
    {
      "inputs": [],
      "stateMutability": "nonpayable",
      "type": "constructor"
    },
    {
      "inputs": [
        {
          "internalType": "uint256",
          "name": "",
          "type": "uint256"
        }
      ],
      "name": "candidates",
      "outputs": [
        {
          "internalType": "uint256",
          "name": "id",
          "type": "uint256"
        },
        {
          "internalType": "string",
          "name": "name",
          "type": "string"
        },
        {
          "internalType": "uint256",
          "name": "voteCount",
          "type": "uint256"
        }
      ],
      "stateMutability": "view",
      "type": "function",
      "constant": true
    },
    {
      "inputs": [],
      "name": "candidatesCount",
      "outputs": [
        {
          "internalType": "uint256",
          "name": "",
          "type": "uint256"
        }
      ],
      "stateMutability": "view",
      "type": "function",
      "constant": true
    },
    {
      "inputs": [],
      "name": "difficulty",
      "outputs": [
        {
          "internalType": "uint256",
          "name": "",
          "type": "uint256"
        }
      ],
      "stateMutability": "view",
      "type": "function",
      "constant": true
    },
    {
      "inputs": [
        {
          "internalType": "address",
          "name": "",
          "type": "address"
        }
      ],
      "name": "hasVoted",
      "outputs": [
        {
          "internalType": "bool",
          "name": "",
          "type": "bool"
        }
      ],
      "stateMutability": "view",
      "type": "function",
      "constant": true
    },
    {
      "inputs": [
        {
          "internalType": "bytes32",
          "name": "",
          "type": "bytes32"
        }
      ],
      "name": "usedNonces",
      "outputs": [
        {
          "internalType": "bool",
          "name": "",
          "type": "bool"
        }
      ],
      "stateMutability": "view",
      "type": "function",
      "constant": true
    },
    {
      "inputs": [
        {
          "internalType": "uint256",
          "name": "_candidateId",
          "type": "uint256"
        },
        {
          "internalType": "uint256",
          "name": "nonce",
          "type": "uint256"
        }
      ],
      "name": "vote",
      "outputs": [],
      "stateMutability": "nonpayable",
      "type": "function"
    }
  ],
  "bytecode": "0x608060405260036004553480156200001657600080fd5b506200005d6040518060400160405280600f81526020017f4361707461696e20416d65726963610000000000000000000000000000000000815250620000a960201b60201c565b620000a36040518060400160405280600881526020017f49726f6e204d616e000000000000000000000000000000000000000000000000815250620000a960201b60201c565b620002ca565b60036000815480929190620000be906200021e565b919050555060405180606001604052806003548152602001828152602001600081525060008060035481526020019081526020016000206000820151816000015560208201518160010190805190602001906200011d9291906200012e565b506040820151816002015590505050565b8280546200013c90620001e8565b90600052602060002090601f016020900481019282620001605760008555620001ac565b82601f106200017b57805160ff1916838001178555620001ac565b82800160010185558215620001ac579182015b82811115620001ab5782518255916020019190600101906200018e565b5b509050620001bb9190620001bf565b5090565b5b80821115620001da576000816000905550600101620001c0565b5090565b6000819050919050565b600060028204905060018216806200020157607f821691505b602082108114156200021857620002176200029b565b5b50919050565b60006200022b82620001de565b91507fffffffffffffffffffffffffffffffffffffffffffffffffffffffffffffffff8214156200026157620002606200026c565b5b600182019050919050565b7f4e487b7100000000000000000000000000000000000000000000000000000000600052601160045260246000fd5b7f4e487b7100000000000000000000000000000000000000000000000000000000600052602260045260246000fd5b610bf880620002da6000396000f3fe608060405234801561001057600080fd5b50600436106100625760003560e01c806309eef43e1461006757806319cae462146100975780632d35a8a2146100b55780633477ee2e146100d3578063b384abef14610105578063feb6172414610121575b600080fd5b610081600480360381019061007c91906104cc565b610151565b60405161008e9190610705565b60405180910390f35b61009f610171565b6040516100ac9190610780565b60405180910390f35b6100bd610177565b6040516100ca9190610780565b60405180910390f35b6100ed60048036038101906100e8919061051e565b61017d565b6040516100fc9392919061079b565b60405180910390f35b61011f600480360381019061011a9190610547565b61022f565b005b61013b600480360381019061013691906104f5565b61046d565b6040516101489190610705565b60405180910390f35b60016020528060005260406000206000915054906101000a900460ff1681565b60045481565b60035481565b60006020528060005260406000206000915090508060000154908060010180546101a690610a1c565b80601f01602080910402602001604051908101604052809291908181526020018280546101d290610a1c565b801561021f5780601f106101f45761010080835404028352916020019161021f565b820191906000526020600020905b81548152906001019060200180831161020257829003601f168201915b5050505050908060020154905083565b600160003373ffffffffffffffffffffffffffffffffffffffff1673ffffffffffffffffffffffffffffffffffffffff16815260200190815260200160002060009054906101000a900460ff16156102bc576040517f08c379a00000000000000000000000000000000000000000000000000000000081526004016102b390610720565b60405180910390fd5b6000821180156102ce57506003548211155b61030d576040517f08c379a000000000000000000000000000000000000000000000000000000000815260040161030490610740565b60405180910390fd5b6000338383604051602001610324939291906106c8565b604051602081830303815290604052805190602001209050600454600a61034b9190610879565b7fffffffffffffffffffffffffffffffffffffffffffffffffffffffffffffffff61037691906107f5565b8160001c106103ba576040517f08c379a00000000000000000000000000000000000000000000000000000000081526004016103b190610760565b60405180910390fd5b60016002600083815260200190815260200160002060006101000a81548160ff02191690831515021790555060018060003373ffffffffffffffffffffffffffffffffffffffff1673ffffffffffffffffffffffffffffffffffffffff16815260200190815260200160002060006101000a81548160ff021916908315150217905550600080848152602001908152602001600020600201600081548092919061046390610a4e565b9190505550505050565b60026020528060005260406000206000915054906101000a900460ff1681565b60008135905061049c81610b7d565b92915050565b6000813590506104b181610b94565b92915050565b6000813590506104c681610bab565b92915050565b6000602082840312156104de57600080fd5b60006104ec8482850161048d565b91505092915050565b60006020828403121561050757600080fd5b6000610515848285016104a2565b91505092915050565b60006020828403121561053057600080fd5b600061053e848285016104b7565b91505092915050565b6000806040838503121561055a57600080fd5b6000610568858286016104b7565b9250506020610579858286016104b7565b9150509250929050565b61059461058f82610997565b610a97565b82525050565b6105a3816109a9565b82525050565b60006105b4826107d9565b6105be81856107e4565b93506105ce8185602086016109e9565b6105d781610b52565b840191505092915050565b60006105ef600e836107e4565b91507f416c726561647920766f7465642e0000000000000000000000000000000000006000830152602082019050919050565b600061062f6011836107e4565b91507f496e76616c69642063616e6469646174650000000000000000000000000000006000830152602082019050919050565b600061066f600b836107e4565b91507f496e76616c696420506f570000000000000000000000000000000000000000006000830152602082019050919050565b6106ab816109df565b82525050565b6106c26106bd826109df565b610abb565b82525050565b60006106d48286610583565b6014820191506106e482856106b1565b6020820191506106f482846106b1565b602082019150819050949350505050565b600060208201905061071a600083018461059a565b92915050565b60006020820190508181036000830152610739816105e2565b9050919050565b6000602082019050818103600083015261075981610622565b9050919050565b6000602082019050818103600083015261077981610662565b9050919050565b600060208201905061079560008301846106a2565b92915050565b60006060820190506107b060008301866106a2565b81810360208301526107c281856105a9565b90506107d160408301846106a2565b949350505050565b600081519050919050565b600082825260208201905092915050565b6000610800826109df565b915061080b836109df565b92508261081b5761081a610af4565b5b828204905092915050565b6000808291508390505b60018511156108705780860481111561084c5761084b610ac5565b5b600185161561085b5780820291505b808102905061086985610b70565b9450610830565b94509492505050565b6000610884826109df565b915061088f836109df565b92506108bc7fffffffffffffffffffffffffffffffffffffffffffffffffffffffffffffffff84846108c4565b905092915050565b6000826108d45760019050610990565b816108e25760009050610990565b81600181146108f8576002811461090257610931565b6001915050610990565b60ff84111561091457610913610ac5565b5b8360020a91508482111561092b5761092a610ac5565b5b50610990565b5060208310610133831016604e8410600b84101617156109665782820a90508381111561096157610960610ac5565b5b610990565b6109738484846001610826565b9250905081840481111561098a57610989610ac5565b5b81810290505b9392505050565b60006109a2826109bf565b9050919050565b60008115159050919050565b6000819050919050565b600073ffffffffffffffffffffffffffffffffffffffff82169050919050565b6000819050919050565b60005b83811015610a075780820151818401526020810190506109ec565b83811115610a16576000848401525b50505050565b60006002820490506001821680610a3457607f821691505b60208210811415610a4857610a47610b23565b5b50919050565b6000610a59826109df565b91507fffffffffffffffffffffffffffffffffffffffffffffffffffffffffffffffff821415610a8c57610a8b610ac5565b5b600182019050919050565b6000610aa282610aa9565b9050919050565b6000610ab482610b63565b9050919050565b6000819050919050565b7f4e487b7100000000000000000000000000000000000000000000000000000000600052601160045260246000fd5b7f4e487b7100000000000000000000000000000000000000000000000000000000600052601260045260246000fd5b7f4e487b7100000000000000000000000000000000000000000000000000000000600052602260045260246000fd5b6000601f19601f8301169050919050565b60008160601b9050919050565b60008160011c9050919050565b610b8681610997565b8114610b9157600080fd5b50565b610b9d816109b5565b8114610ba857600080fd5b50565b610bb4816109df565b8114610bbf57600080fd5b5056fea2646970667358221220479f8b22d7d64df2c3be0b4d7cdca80cc2e42efae3695c99d9a25bee5a09873d64736f6c63430008000033",
  "immutableReferences": {},
  "source": "// SPDX-License-Identifier: MIT\r\npragma solidity ^0.8.0;\r\n\r\ncontract DVoting {\r\n    struct Candidate {\r\n        uint id;\r\n        string name;\r\n        uint voteCount;\r\n    }\r\n\r\n    mapping(uint => Candidate) public candidates;\r\n    mapping(address => bool) public hasVoted;\r\n    mapping(bytes32 => bool) public usedNonces;\r\n\r\n    uint public candidatesCount;\r\n    uint public difficulty = 3; // adjustable PoW difficulty\r\n\r\n    constructor() {\r\n        addCandidate(\"Captain America\");\r\n        addCandidate(\"Iron Man\");\r\n    }\r\n\r\n    function addCandidate(string memory _name) internal {\r\n        candidatesCount++;\r\n        candidates[candidatesCount] = Candidate(candidatesCount, _name, 0);\r\n    }\r\n\r\n    // Simulated Proof of Work-require nonce that gives a hash with leading zeros\r\nfunction vote(uint _candidateId, uint nonce) public {\r\n\r\n    require(!hasVoted[msg.sender], \"Already voted.\");\r\n    \r\n    //require(nonce < 1000000, \"Nonce value too large\");\r\n    \r\n    require(_candidateId > 0 && _candidateId <= candidatesCount, \"Invalid candidate\");\r\n\r\n    bytes32 hash = keccak256(abi.encodePacked(msg.sender, _candidateId, nonce));\r\n    \r\n    //require(!usedNonces[hash], \"Nonce reused\");\r\n    \r\n    require(uint256(hash) < type(uint256).max / (10 ** difficulty), \"Invalid PoW\");\r\n\r\n    usedNonces[hash] = true;\r\n    \r\n    hasVoted[msg.sender] = true;\r\n    \r\n    candidates[_candidateId].voteCount++;\r\n    \r\n}\r\n\r\n\r\n}\r\n\r\n",
  "sourcePath": "C:\\Users\\ABHISHEK\\OneDrive\\Desktop\\blockchain\\main_project\\contracts\\DVoting.sol",
  "compiler": {
    "name": "solc",
    "version": "0.8.0+commit.c7dfd78e.Emscripten.clang"
  },
  "schemaVersion": "3.4.16",
  "updatedAt": "2025-05-09T07:01:42.378Z",
  "networkType": "ethereum",
  "devdoc": {
    "kind": "dev",
    "methods": {},
    "version": 1
  },
  "userdoc": {
    "kind": "user",
    "methods": {},
    "version": 1
  }
}